:0C0000000C948D000C9400000C94000087
:10000C000C9400000C9400000C9400000C94000064
:10001C000C9400000C9400000C9400000C94000054
:10002C000C9400000C9400000C9400000C94000044
:10003C000C9400000C9400000C9400000C94000034
:10004C000C9400000C9400001027E80364000A00D4
:10005C000100001000011000010000000000000071
:10006C000000010001000100000102030405060765
:10007C000809101112131415161718192021222310
:10008C002425262728293031323334353637383970
:10009C0040414243444546474849505152535455B8
:1000AC005657585960616263646566676869707118
:1000BC00727374757677787980818283848586876C
:1000CC008889909192939495969798994C41502049
:1000DC002564203A202564206D20256420730000BF
:1000EC0001002D4E414E00494E46000080C00800D4
:1000FC0004006600010062026E006400630274007A
:10010C000100C702EC000200CB02F8000000F894DA
:10011C00EE27ECBBF1E0FBBFEBBFE5BF8DE0A2E04F
:10012C00BB27ED938A95E9F780E098E0A0E6ED9384
:10013C000197E9F7EAEFF0E085919591009761F06E
:10014C00A591B59105901590BF01F00105900D9208
:10015C000197E1F7FB01F0CFEFE5EDBFE8E0EEBF73
:10016C00C0E6D2E00C940D01BAD2C0D20895CC995D
:10017C0009C0EBE3F0E0E615F70509F40895F30187
:10018C00319604C0CD9904C0F30131973F01AED232
:10019C000895CE9909C0EBE3F0E0E415F50509F4F8
:1001AC000895F201319604C0CF9904C0F201319741
:1001BC002F0195D20895CA9922C0E0E0EA93AA2DA6
:1001CC00C7D0F40131964F01E8EDF0E0FA93EA93D1
:1001DC00F4016F2F660F660B762FD3D2A3E6B2E035
:1001EC00A40DB51D8AD2A3E6B2E0A60DB71D85D22B
:1001FC008CE04ED22E96F50131965F0107C0CB995B
:10020C0005C0BAD088249924AA24BB24089562017D
:10021C006092600270926102EFEFEABBEBBBE7BB4E
:10022C00E0E0E8BBEFEFE4BBE0E0E5BBEFEFE1BB08
:10023C00E0E0E2BBE3BFE2BFECBFEFBDEEBDEDBD66
:10024C00ECBDE7BDE6BDEBBDEABDE9BDE8BDE2BD79
:10025C00E5BDE4BDE3BDE9BFE5BFE4BFEAB9E0E855
:10026C00E8B9E0E0E0BFE6B9EDB9E6BFA0E1AED099
:10027C00E0E0C99BE1E0E0936202E03049F0002449
:10028C000414050424F00024061407040CF401C023
:10029C0017C0F30131973F013196002460147004AC
:1002AC0034F4F20131972F01EBE3F0E03F0100242D
:1002BC004014500414F466247724A6E4B0E066D20B
:1002CC00E0916202E03029F452DF63DFA8E2B0E093
:1002DC005DD271DF49DFCCCFFFCFBA93AA93A9913E
:1002EC00B991EE27FF276D91662311F03196FBCF64
:1002FC000895BA93AA93AA27BB27E991F99105907F
:10030C00002011F01196FBCFFD0108951A931A2FBE
:10031C00E5B3EF70AE2FE12FE07FEA2BE5BB84E174
:10032C008A95F1F7AA9A84E18A95F1F7AA9884E163
:10033C008A95F1F775C0AA93A881E8DFE881E29568
:10034C00E883A881E3DF88EC8A95F1F7219608957C
:10035C001A930A931A2F0A81E12FF0E0E553FD4F0F
:10036C00E081E00FAE2FE7DF0093CF021093D002B5
:10037C001981088123960895A2E0C5D1ACE0DBDF9A
:10038C00A1E0C1D1E0E0E093D002E093CF02089568
:10039C001A931A2F1A3031F0E091D102A091CF02AA
:1003AC00AE1750F0E0E0EA93A091D002AF5FA093BB
:1003BC00D002CEDF1A30A1F1E091CF02EF5FE093D3
:1003CC00CF02A89AA12FB7DFA8982AC01A931A2F88
:1003DC00E4B3E06FE4BBA29AA09AA19AAA98A89859
:1003EC00A9981093D102E12FE058E093CD02E12FB0
:1003FC00E054E093CE02A4E1B0E0C8D188D187D11B
:10040C0086D1A0E283DF8CE291E00197F1F7A8E2BC
:10041C0092DFA4E090DFA5E88EDFA6E08CDFACDFF6
:10042C0019910895BA93AA93269795D110E0AC85AB
:10043C00BD85E0E0F0E0ED93FC93EA89FB89319611
:10044C00EA8BFB8B3197E4912E2FE03009F40BC132
:10045C00E12FE03031F4253211F411E001C05ED10E
:10046C0001C1E130A1F4253211F458D1FAC012E0E7
:10047C0040E000E02D3211F401E0F4C02B3211F415
:10048C004BE2F0C0203211F440E2ECC002C0E2308A
:10049C0039F450E013E0203311F40068E3C003C0DA
:1004AC00E33009F0DFC0203310F02A3308F007C026
:1004BC00AAE05A9F502DE22FE0535E0FD3C0E22FDB
:1004CC00E33639F432D1E889F989A481AA9333D17E
:1004DC00C8C0E33729F429D134D1FFDE1E2F07C061
:1004EC00E03749F422D12DD104DF1E2F08600260C1
:1004FC000F7730E03AC0E43611F0E93611F40460BD
:10050C0002C0E53731F4E4E5F0E0EE83FF8315E05B
:10051C000CC0E83511F4086003C0E83709F0A1C03D
:10052C00EEE5F0E0EE83FF8314E002FF15C0FDD092
:10053C00A889B9891496ED91FD91EA87FB87AB8563
:10054C00AA2322F416D1EA87FB874DE2403011F042
:10055C001F5F01C00B7F09C0E8D0A889B989149628
:10056C00ED91FC911197EA87FB8700FD10C01517E0
:10057C0070F407FF08C002FF04C00B7F242F11503A
:10058C0001C020E301C020E2C9D05150F0CF312F7F
:10059C0001FF16C0303099F003FF06C0EE81FF81D9
:1005AC002591EE83FF8305C0AE81BF812D91AE8373
:1005BC00BF83B4D0503009F051503150EBCF48C00C
:1005CC0020E3EE81FF81D9D0E887F987EE81FF81A6
:1005DC003296EE83FF83E885F985AA85BB85AE1735
:1005EC00BF0750F02F5FA885B985EA85FB85EA1B0C
:1005FC00FB0BEA87FB87EFCF2A3328F003FF02C0FF
:10060C00295F01C0295D04FD19C0213320F4A885A0
:10061C00B985119709F409C0531710F000FF01C0F8
:10062C0011C020E207FF0AC020E3006102FF06C0F0
:10063C000B7F4A9380D0503009F051506FD050301E
:10064C0009F051503150A885B985129708F0B8CFF0
:10065C0000FF07C0503029F05150E0E2EA936BD014
:10066C00F9CF10E0EACEAC85BD85ED91FD917AD045
:10067C006496089572D08D013C81A32F89DED80138
:10068C00ED91FD913196FE93EE936ED025960895E3
:10069C00FF92F82E26971A930A93DE0114960024E3
:1006AC00AF0DB01D8D01E0E0EC83ED83EE83EF83A5
:1006BC00DE0118960024AF0DB01DED91FD91FA935B
:1006CC00EA931A930A93E0E4F3E0FA93EA93DE01D7
:1006DC001896A8DE198108812896FF900895A3E644
:1006EC00B2E0A40DB51DEC91E8BB0895A3E6B2E011
:1006FC00A60DB71DEC91E2BB0895EC91FF27662780
:10070C0077273FD0089517DEA3E0B0E03FC0A0E309
:10071C00FDDD8CE291E00197F1F708952A93AD8508
:10072C00BE85EF85F88909950895E889F98934978C
:10073C00E88BF98B0895AD85BE85EF85F889099511
:10074C000895A889B9891496ED91FD91EE83FF83E4
:10075C00AE81BF8108955A934A933A932A931A9380
:10076C000A9308955D814C813B812A81198108810E
:10077C000895F195E195F04008950590F491E02DE0
:10078C0008957A936A93FA93EA930895109639F040
:10079C00A89588EB9BE00197F1F71197C9F708959D
:00000001FF
