:0E0000000C9480000C9400000C9400000C94F2
:10000E0000000C9400000C9400000C9400000C9462
:10001E0000000C9400000C9400000C9400000C9452
:10002E0000000C9400000C9400000C9400000C9442
:10003E0000000C9400000C9400000C9400000C9432
:10004E0000000C9400001027E80364000A00010071
:10005E00001000011000010000000500000000006B
:10006E000001010001000001020304050607080952
:10007E0010111213141516171819202122232425D6
:10008E002627282930313233343536373839404136
:10009E00424344454647484950515253545556578A
:1000AE0058596061626364656667686970717273DE
:1000BE00747576777879808182838485868788893E
:1000CE009091929394959697989901002D4E414E4A
:1000DE0000494E46000080C00A000400660064001D
:1000EE00600274000100C402D8000200C802E400DD
:1000FE000000F894EE27ECBBF1E0FBBFEBBFE5BFD1
:10010E008DE0A2E0BB27ED938A95E9F780E098E0B9
:10011E00A0E6ED930197E9F7E6EEF0E08591959173
:10012E00009761F0A591B59105901590BF01F00172
:10013E0005900D920197E1F7FB01F0CFEFE5EDBFD2
:10014E00E8E0EEBFC0E6D2E00C94D400DED0E4D0FE
:10015E000895CC9909C0EBE3F0E0E615F70509F434
:10016E000895F301319604C0CD9904C0F30131977F
:10017E003F01D2D00895CE9909C0EBE3F0E0E4152B
:10018E00F50509F40895F201319604C0CF9904C023
:10019E00F20131972F01B9D0089542015301EFEFCB
:1001AE00EABBEBBBE7BBE0E0E8BBEFEFE4BBE0E0B4
:1001BE00E5BBEFEFE1BBE0E0E2BBE3BFE2BFECBFCC
:1001CE00EFBDEEBDEDBDECBDE7BDE6BDEBBDEABDE1
:1001DE00E9BDE8BDE2BDE5BDE4BDE3BDE9BFE5BFF8
:1001EE00E4BFEAB9E0E8E8B9E0E0E0BFE6B9EDB9AE
:1001FE00E6BFA0E15ED0E0E0C99BE1E0DE2EDD20AF
:10020E0049F000240414050424F000240614070405
:10021E000CF401C016C0F30131973F0100246014A5
:10022E00700434F4F20131972F01EBE3F0E03F015B
:10023E0000244014500414F466247724A6E4B0E09D
:10024E007DD0DD2029F485DF96DFA8E2B0E076D000
:10025E007DDFD1CFFFCF1A931A2FE5B3EF70AE2FFC
:10026E00E12FE07FEA2BE5BB84E18A95F1F7AA9AAC
:10027E0084E18A95F1F7AA9884E18A95F1F743C053
:10028E00AA93A881E8DFE881E295E883A881E3DFFD
:10029E0088EC8A95F1F721960895A2E044D0ACE05F
:1002AE00EFDFA1E040D0E0E0E093CD02E093CC029E
:1002BE0008951A931A2FE4B3E06FE4BBA29AA09AA2
:1002CE00A19AAA98A898A9981093CE02E12FE05867
:1002DE00E093CA02E12FE054E093CB02A4E1B0E038
:1002EE002DD025D024D023D0A0E2B5DF8CE291E032
:1002FE000197F1F7A8E2C4DFA4E0C2DFA5E8C0DFF2
:10030E00A6E0BEDFCADF19910895A0E6B2E0A40D03
:10031E00B51DEC91E8BB0895A0E6B2E0A60DB71DA1
:10032E00EC91E2BB0895ACDFA3E0B0E007C0A0E320
:10033E0092DF8CE291E00197F1F70895109639F073
:10034E00A89588EB9BE00197F1F71197C9F70895EF
:00000001FF
