:040000000C947900E3
:100004000C9400000C9400000C9400000C9400006C
:100014000C9400000C9400000C9400000C9400005C
:100024000C9400000C9400000C9400000C9400004C
:100034000C9400000C9400000C9400000C9400003C
:100044000C9400000C9400000C9400000C9400002C
:100054001027E80364000A000100001000011000EA
:1000640001003B003B00010100000001000102030C
:100074000405060708091011121314151617181988
:1000840020212223242526272829303132333435D0
:100094003637383940414243444546474849505130
:1000A4005253545556575859606162636465666784
:1000B40068697071727374757677787980818283D8
:1000C4008485868788899091929394959697989938
:1000D4006F6E006F6666000080C00A000400660050
:1000E4006400600270000200C402DC000000F894A6
:1000F400EE27ECBBF1E0FBBFEBBFE5BF8DE0A2E078
:10010400BB27ED938A95E9F780E098E0A0E6ED93AC
:100114000197E9F7EEEDF0E085919591009761F094
:10012400A591B59105901590BF01F00105900D9230
:100134000197E1F7FB01F0CFEFE5EDBFE8E0EEBF9B
:10014400C0E6D2E00C94B300A0E6B2E0A40DB51D65
:10015400EC91E8BBA0E6B2E0A60DB71DEC91E2BBC2
:100164000895E0E0EABBEFEFEBBBE7BBE0E0E8BB00
:10017400EFEFE4BBE0E0E5BBEFEFE1BBE0E0E2BBC7
:10018400E3BFE2BFECBFEFBDEEBDEDBDECBDE7BD2F
:10019400E6BDEBBDEABDE9BDE8BDE2BDE5BDE4BD3C
:1001A400E3BDE9BFE5BFE4BFEAB9E0E8E8B9E0E0F0
:1001B400E0BFE6B9EDB9E6BFA0E168D044D0C99983
:1001C40003C0E4EDF0E002C0E7EDF0E0FA93EA9357
:1001D40080E0BED12296B8DFF1CFFFCF1A931A2F59
:1001E400E5B3EF70AE2FE12FE07FEA2BE5BB84E1AE
:1001F4008A95F1F7AA9A84E18A95F1F7AA9884E19D
:100204008A95F1F76DC0AA93A881E8DFE881E295A9
:10021400E883A881E3DF88EC8A95F1F721960895B5
:100224001A930A931A2F0A81E12FF0E0EC53FD4F41
:10023400E081E00FAE2FE7DFC02E1093C8021981D2
:10024400088123960895A2E0C3D1ACE0DCDFA1E0ED
:10025400BFD1E0E0E093C802CE2E08951A931A2F7E
:100264001A3021F0E091C902CE1650F0E0E0EA9392
:10027400A091C802AF5FA093C802D2DF1A3081F107
:10028400C394A89AA12FBFDFA8982AC01A931A2F43
:10029400E4B3E06FE4BBA29AA09AA19AAA98A898A2
:1002A400A9981093C902E12FE058E093C602E12F08
:1002B400E054E093C702A4E1B0E0C8D18DD18CD161
:1002C4008BD1A0E28BDF8CE291E00197F1F7A8E2F9
:1002D4009ADFA4E098DFA5E896DFA6E094DFB3DF19
:1002E40019910895BA93AA9326979AD110E0AC85F0
:1002F400BD85E0E0F0E0ED93FC93EA89FB8931965B
:10030400EA8BFB8B3197E4912E2FE03009F40BC17B
:10031400E12FE03031F4253211F411E001C063D152
:1003240001C1E130A1F4253211F45DD1FAC012E02B
:1003340040E000E02D3211F401E0F4C02B3211F45E
:100344004BE2F0C0203211F440E2ECC002C0E230D3
:1003540039F450E013E0203311F40068E3C003C023
:10036400E33009F0DFC0203310F02A3308F007C06F
:10037400AAE05A9F502DE22FE0535E0FD3C0E22F24
:10038400E33639F437D1E889F989A481AA9338D1BD
:10039400C8C0E33729F42ED139D101D11E2F07C0AB
:1003A400E03749F427D132D106D11E2F086002600C
:1003B4000F7730E03AC0E43611F0E93611F4046006
:1003C40002C0E53731F4E4E5F0E0EE83FF8315E0A5
:1003D4000CC0E83511F4086003C0E83709F0A1C087
:1003E400EEE5F0E0EE83FF8314E002FF15C002D1D6
:1003F400A889B9891496ED91FD91EA87FB87AB85AD
:10040400AA2322F41BD1EA87FB874DE2403011F086
:100414001F5F01C00B7F09C0EDD0A889B98914966C
:10042400ED91FC911197EA87FB8700FD10C0151729
:1004340070F407FF08C002FF04C00B7F242F115083
:1004440001C020E301C020E2CED05150F0CF312FC3
:1004540001FF16C0303099F003FF06C0EE81FF8122
:100464002591EE83FF8305C0AE81BF812D91AE83BC
:10047400BF83B9D0503009F051503150EBCF48C050
:1004840020E3EE81FF81DED0E887F987EE81FF81EA
:100494003296EE83FF83E885F985AA85BB85AE177E
:1004A400BF0750F02F5FA885B985EA85FB85EA1B55
:1004B400FB0BEA87FB87EFCF2A3328F003FF02C048
:1004C400295F01C0295D04FD19C0213320F4A885EA
:1004D400B985119709F409C0531710F000FF01C042
:1004E40011C020E207FF0AC020E3006102FF06C03A
:1004F4000B7F4A9385D0503009F0515074D050305E
:1005040009F051503150A885B985129708F0B8CF39
:1005140000FF07C0503029F05150E0E2EA9370D058
:10052400F9CF10E0EACEAC85BD85ED91FD917FD089
:100534006496089577D08D013C81A32F8FDED80176
:10054400ED91FD913196FE93EE9373D02596089527
:10055400FF92F82E26971A930A93DE01149600242C
:10056400AF0DB01D8D01E0E0EC83ED83EE83EF83EE
:10057400DE0118960024AF0DB01DED91FD91FA93A4
:10058400EA931A930A93ECE9F2E0FA93EA93DE0110
:100594001896A8DE198108812896FF900895BA93C9
:1005A400AA93A991B991EE27FF276D91662311F0C3
:1005B4003196FBCF0895BA93AA93AA27BB27E99152
:1005C400F9910590002011F01196FBCFFD010895DB
:1005D4001ADEA3E0B0E03AC0A0E300DE8CE291E0D2
:1005E4000197F1F708952A93AD85BE85EF85F889C3
:1005F40009950895E889F9893497E88BF98B08956A
:10060400AD85BE85EF85F88909950895A889B989CE
:100614001496ED91FD91EE83FF83AE81BF81089521
:100624005A934A933A932A931A930A9308955D81AD
:100634004C813B812A81198108810895F195E195C6
:10064400F04008950590F491E02D0895109639F046
:10065400A89588EB9BE00197F1F71197C9F70895E6
:00000001FF
