:0A0000000C9479000C9400000C949D
:10000A0000000C9400000C9400000C9400000C9466
:10001A0000000C9400000C9400000C9400000C9456
:10002A0000000C9400000C9400000C9400000C9446
:10003A0000000C9400000C9400000C9400000C9436
:10004A0000000C9400000C9400001027E8036400E0
:10005A000A00010000100001100001000000000069
:10006A000000000001000100010000010203040574
:10007A00060708091011121314151617181920214A
:10008A00222324252627282930313233343536379E
:10009A0038394041424344454647484950515253F2
:1000AA005455565758594C4150202564203A20251A
:1000BA0064206D2025642073000001002D4E414EFE
:1000CA0000494E46000080C0080004006600010096
:1000DA0062026E003C00650274000100A102C400C5
:1000EA000200A502D0000000F894EE27ECBBF1E074
:1000FA00FBBFEBBFE5BF8DE0A2E0BB27ED938A957E
:10010A00E9F780E098E0A0E6ED930197E9F7E2EDE0
:10011A00F0E085919591009761F0A591B5910590D0
:10012A001590BF01F00105900D920197E1F7FB01CF
:10013A00F0CFEFE5EDBFE8E0EEBFC0E6D2E00C9409
:10014A000F01DAD2E0D20895CC9909C0EBE3F0E0CE
:10015A00E615F70509F40895F301319604C0CD991F
:10016A0004C0F30131973F01CED20895CE9909C058
:10017A00EBE3F0E0E415F50509F40895F201319690
:10018A0004C0CF9904C0F20131972F01B5D2089566
:10019A00CA9922C0E0E0EA93AA2DEBD0F401319685
:1001AA004F01E0EBF0E0FA93EA93F4016F2F660F48
:1001BA00660B762FFED2A5E6B2E0A40DB51DAAD233
:1001CA00A5E6B2E0A60DB71DA5D28CE06ED22E969A
:1001DA00F50131965F0107C0CB9905C0DED08824AE
:1001EA009924AA24BB240895E0E0E0936302E093F3
:1001FA006402A0916302B0916402A838E1E0BE07EC
:10020A0044F4AB988DD2AB9A8BD2A3E6B2E08DD2EE
:10021A00F0CF089562016092600270926102EFEF7E
:10022A00EABBEBBBE7BBE0E0E8BBEFEFE4BBE0E037
:10023A00E5BBEFEFE1BBE0E0E2BBE3BFE2BFECBF4F
:10024A00EFBDEEBDEDBDECBDE7BDE6BDEBBDEABD64
:10025A00E9BDE8BDE2BDE5BDE4BDE3BDE9BFE5BF7B
:10026A00E4BFEAB9E0E8E8B9E0E0E0BFE6B9EDB931
:10027A00E6BFA0E1BCD0E0E0C99BE1E0E093620206
:10028A00E03041F000240414050421F4002406148B
:10029A00070409F001C0A8DFE0916202E03049F0EA
:1002AA0000240414050424F00024061407040CF4A2
:1002BA0001C017C0F30131973F0131960024601441
:1002CA00700434F4F20131972F01EBE3F0E03F01BF
:1002DA0000244014500414F466247724A0EBB4E0FC
:1002EA006DD2E0916202E03029F42EDF3FDFA4E014
:1002FA00B1E064D24DDF25DFBECFFFCFBA93AA9318
:10030A00A991B991EE27FF276D91662311F03196D5
:10031A00FBCF0895BA93AA93AA27BB27E991F9912B
:10032A000590002011F01196FBCFFD0108951A9354
:10033A001A2FE5B3EF70AE2FE12FE07FEA2BE5BB72
:10034A0084E18A95F1F7AA9A84E18A95F1F7AA9845
:10035A0084E18A95F1F775C0AA93A881E8DFE8815C
:10036A00E295E883A881E3DF88EC8A95F1F7219684
:10037A0008951A930A931A2F0A81E12FF0E0EB5598
:10038A00FD4FE081E00FAE2FE7DF0093A902109343
:10039A00AA021981088123960895A2E0CCD1ACE083
:1003AA00DBDFA1E0C8D1E0E0E093AA02E093A90272
:1003BA0008951A931A2F1A3031F0E091AB02A091E6
:1003CA00A902AE1750F0E0E0EA93A091AA02AF5F4B
:1003DA00A093AA02CEDF1A30A1F1E091A902EF5F41
:1003EA00E093A902A89AA12FB7DFA8982AC01A9366
:1003FA001A2FE4B3E06FE4BBA29AA09AA19AAA9832
:10040A00A898A9981093AB02E12FE058E093A702AD
:10041A00E12FE054E093A802A4E1B0E0CFD18FD15C
:10042A008ED18DD1A0E283DF8CE291E00197F1F7C2
:10043A00A8E292DFA4E090DFA5E88EDFA6E08CDFD9
:10044A00ACDF19910895BA93AA9326979CD110E02C
:10045A00AC85BD85E0E0F0E0ED93FC93EA89FB8989
:10046A003196EA8BFB8B3197E4912E2FE03009F419
:10047A000BC1E12FE03031F4253211F411E001C053
:10048A0065D101C1E130A1F4253211F45FD1FAC07E
:10049A0012E040E000E02D3211F401E0F4C02B320A
:1004AA0011F44BE2F0C0203211F440E2ECC002C079
:1004BA00E23039F450E013E0203311F40068E3C06D
:1004CA0003C0E33009F0DFC0203310F02A3308F00C
:1004DA0007C0AAE05A9F502DE22FE0535E0FD3C007
:1004EA00E22FE33639F439D1E889F989A481AA934C
:1004FA003AD1C8C0E33729F430D13BD1FFDE1E2FF1
:10050A0007C0E03749F429D134D104DF1E2F08602F
:10051A0002600F7730E03AC0E43611F0E93611F4A0
:10052A00046002C0E53731F4E4E5F0E0EE83FF83CE
:10053A0015E00CC0E83511F4086003C0E83709F08B
:10054A00A1C0EEE5F0E0EE83FF8314E002FF15C0E0
:10055A0004D1A889B9891496ED91FD91EA87FB87A0
:10056A00AB85AA2322F41DD1EA87FB874DE24030EE
:10057A0011F01F5F01C00B7F09C0EFD0A889B989AC
:10058A001496ED91FC911197EA87FB8700FD10C044
:10059A00151770F407FF08C002FF04C00B7F242F51
:1005AA00115001C020E301C020E2D0D05150F0CF59
:1005BA00312F01FF16C0303099F003FF06C0EE81DB
:1005CA00FF812591EE83FF8305C0AE81BF812D9106
:1005DA00AE83BF83BBD0503009F051503150EBCFBE
:1005EA0048C020E3EE81FF81E0D0E887F987EE81F9
:1005FA00FF813296EE83FF83E885F985AA85BB855C
:10060A00AE17BF0750F02F5FA885B985EA85FB852D
:10061A00EA1BFB0BEA87FB87EFCF2A3328F003FF9D
:10062A0002C0295F01C0295D04FD19C0213320F4ED
:10063A00A885B985119709F409C0531710F000FF6E
:10064A0001C011C020E207FF0AC020E3006102FFD7
:10065A0006C00B7F4A9387D0503009F0515076D0AC
:10066A00503009F051503150A885B985129708F0D9
:10067A00B8CF00FF07C0503029F05150E0E2EA93AA
:10068A0072D0F9CF10E0EACEAC85BD85ED91FD912F
:10069A0081D06496089579D08D013C81A32F89DE9B
:1006AA00D80143D079D025960895FF92F82E26973F
:1006BA001A930A93DE0114960024AF0DB01D8D0122
:1006CA00E0E0EC83ED83EE83EF83DE0118960024ED
:1006DA00AF0DB01DED91FD91FA93EA931A930A9327
:1006EA00E0E5F3E0FA93EA93DE011896ACDE1981AD
:1006FA0008812896FF900895A5E6B2E0A40DB51DDD
:10070A00EC91E8BB0895A5E6B2E0A60DB71DEC9101
:10071A00E2BB0895EC91FF27662777274AD0089510
:10072A0088EB9BE00197F1F70895ED91FD913196E1
:10073A00FE93EE93089510DEA3E0B0E03FC0A0E37D
:10074A00F6DD8CE291E00197F1F708952A93AD85E1
:10075A00BE85EF85F88909950895E889F98934975E
:10076A00E88BF98B0895AD85BE85EF85F8890995E3
:10077A000895A889B9891496ED91FD91EE83FF83B6
:10078A00AE81BF8108955A934A933A932A931A9352
:10079A000A9308955D814C813B812A8119810881E0
:1007AA000895F195E195F04008950590F491E02DB2
:1007BA0008957A936A93FA93EA930895109639F012
:1007CA00A89588EB9BE00197F1F71197C9F708956F
:00000001FF
